{
    "contractName": "Accounts",
    "abi": [
        {
            "inputs": [],
            "stateMutability": "nonpayable",
            "type": "constructor"
        },
        {
            "inputs": [
                {
                    "internalType": "uint256",
                    "name": "",
                    "type": "uint256"
                }
            ],
            "name": "accounts",
            "outputs": [
                {
                    "internalType": "uint256",
                    "name": "id",
                    "type": "uint256"
                },
                {
                    "internalType": "string",
                    "name": "name",
                    "type": "string"
                },
                {
                    "internalType": "string",
                    "name": "email",
                    "type": "string"
                }
            ],
            "stateMutability": "view",
            "type": "function"
        },
        {
            "inputs": [
                {
                    "internalType": "string",
                    "name": "_name",
                    "type": "string"
                },
                {
                    "internalType": "string",
                    "name": "_email",
                    "type": "string"
                }
            ],
            "name": "addAccount",
            "outputs": [],
            "stateMutability": "nonpayable",
            "type": "function"
        },
        {
            "inputs": [
                {
                    "internalType": "uint256",
                    "name": "_id",
                    "type": "uint256"
                }
            ],
            "name": "getAccount",
            "outputs": [
                {
                    "components": [
                        {
                            "internalType": "uint256",
                            "name": "id",
                            "type": "uint256"
                        },
                        {
                            "internalType": "string",
                            "name": "name",
                            "type": "string"
                        },
                        {
                            "internalType": "string",
                            "name": "email",
                            "type": "string"
                        }
                    ],
                    "internalType": "struct Accounts.AccountStruct",
                    "name": "",
                    "type": "tuple"
                }
            ],
            "stateMutability": "view",
            "type": "function"
        }
    ],
    "bytecode": "608060405234801561001057600080fd5b50600080556107ce806100246000396000f3fe608060405234801561001057600080fd5b50600436106100415760003560e01c80634479a70f14610046578063ce88b1451461005b578063f2a40db814610084575b600080fd5b6100596100543660046104ce565b6100a6565b005b61006e610069366004610532565b610160565b60405161007b9190610591565b60405180910390f35b610097610092366004610532565b6102e5565b60405161007b939291906105dd565b6000805490806100b583610612565b909155505060408051606081018252600080548252602082018581529282018490526001805480820182559152815160039091027fb10e2d527612073b26eecdfd717e6a320cf44b4afac2b0732d9fcbe2b7fa0cf681019182559251919290917fb10e2d527612073b26eecdfd717e6a320cf44b4afac2b0732d9fcbe2b7fa0cf79091019061014490826106c2565b506040820151600282019061015990826106c2565b5050505050565b61018460405180606001604052806000815260200160608152602001606081525090565b6001828154811061019757610197610782565b9060005260206000209060030201604051806060016040529081600082015481526020016001820180546101ca90610639565b80601f01602080910402602001604051908101604052809291908181526020018280546101f690610639565b80156102435780601f1061021857610100808354040283529160200191610243565b820191906000526020600020905b81548152906001019060200180831161022657829003601f168201915b5050505050815260200160028201805461025c90610639565b80601f016020809104026020016040519081016040528092919081815260200182805461028890610639565b80156102d55780601f106102aa576101008083540402835291602001916102d5565b820191906000526020600020905b8154815290600101906020018083116102b857829003601f168201915b5050505050815250509050919050565b600181815481106102f557600080fd5b6000918252602090912060039091020180546001820180549193509061031a90610639565b80601f016020809104026020016040519081016040528092919081815260200182805461034690610639565b80156103935780601f1061036857610100808354040283529160200191610393565b820191906000526020600020905b81548152906001019060200180831161037657829003601f168201915b5050505050908060020180546103a890610639565b80601f01602080910402602001604051908101604052809291908181526020018280546103d490610639565b80156104215780601f106103f657610100808354040283529160200191610421565b820191906000526020600020905b81548152906001019060200180831161040457829003601f168201915b5050505050905083565b634e487b7160e01b600052604160045260246000fd5b600082601f83011261045257600080fd5b813567ffffffffffffffff8082111561046d5761046d61042b565b604051601f8301601f19908116603f011681019082821181831017156104955761049561042b565b816040528381528660208588010111156104ae57600080fd5b836020870160208301376000602085830101528094505050505092915050565b600080604083850312156104e157600080fd5b823567ffffffffffffffff808211156104f957600080fd5b61050586838701610441565b9350602085013591508082111561051b57600080fd5b5061052885828601610441565b9150509250929050565b60006020828403121561054457600080fd5b5035919050565b6000815180845260005b8181101561057157602081850181015186830182015201610555565b506000602082860101526020601f19601f83011685010191505092915050565b602081528151602082015260006020830151606060408401526105b7608084018261054b565b90506040840151601f198483030160608501526105d4828261054b565b95945050505050565b8381526060602082015260006105f6606083018561054b565b8281036040840152610608818561054b565b9695505050505050565b60006001820161063257634e487b7160e01b600052601160045260246000fd5b5060010190565b600181811c9082168061064d57607f821691505b60208210810361066d57634e487b7160e01b600052602260045260246000fd5b50919050565b601f8211156106bd57600081815260208120601f850160051c8101602086101561069a5750805b601f850160051c820191505b818110156106b9578281556001016106a6565b5050505b505050565b815167ffffffffffffffff8111156106dc576106dc61042b565b6106f0816106ea8454610639565b84610673565b602080601f831160018114610725576000841561070d5750858301515b600019600386901b1c1916600185901b1785556106b9565b600085815260208120601f198616915b8281101561075457888601518255948401946001909101908401610735565b50858210156107725787850151600019600388901b60f8161c191681555b5050505050600190811b01905550565b634e487b7160e01b600052603260045260246000fdfea2646970667358221220e6bf8bd6a6219adb1bfc1088b0dbc7237d32801df5e7be19da17bfcc2edaa03f64736f6c63430008110033",
    "sourcePath": "d:/Projects/sem5/contracts/contracts/Accounts.sol",
    "compiler": {
        "name": "solc",
        "version": "0.8.17+commit.8df45f5f"
    },
    "functionHashes": {
        "accounts(uint256)": "f2a40db8",
        "addAccount(string,string)": "4479a70f",
        "getAccount(uint256)": "ce88b145"
    },
    "gasEstimates": {
        "creation": {
            "codeDepositCost": "399600",
            "executionCost": "5442",
            "totalCost": "405042"
        },
        "external": {
            "accounts(uint256)": "infinite",
            "addAccount(string,string)": "infinite",
            "getAccount(uint256)": "infinite"
        }
    }
}