{
  "contractName": "User",
  "abi": [
    {
      "inputs": [],
      "stateMutability": "nonpayable",
      "type": "constructor"
    },
    {
      "inputs": [
        {
          "internalType": "string",
          "name": "_nic",
          "type": "string"
        }
      ],
      "name": "setNIC",
      "outputs": [],
      "stateMutability": "nonpayable",
      "type": "function"
    },
    {
      "inputs": [
        {
          "internalType": "string",
          "name": "_name",
          "type": "string"
        }
      ],
      "name": "setName",
      "outputs": [],
      "stateMutability": "nonpayable",
      "type": "function"
    },
    {
      "inputs": [
        {
          "internalType": "string",
          "name": "_mobile",
          "type": "string"
        }
      ],
      "name": "setMobile",
      "outputs": [],
      "stateMutability": "nonpayable",
      "type": "function"
    },
    {
      "inputs": [
        {
          "internalType": "string",
          "name": "_user_addr",
          "type": "string"
        }
      ],
      "name": "setUserAddr",
      "outputs": [],
      "stateMutability": "nonpayable",
      "type": "function"
    },
    {
      "inputs": [
        {
          "internalType": "address",
          "name": "verifier",
          "type": "address"
        }
      ],
      "name": "setLastVerifier",
      "outputs": [],
      "stateMutability": "nonpayable",
      "type": "function"
    },
    {
      "inputs": [],
      "name": "getNIC",
      "outputs": [
        {
          "internalType": "string",
          "name": "_nic",
          "type": "string"
        }
      ],
      "stateMutability": "view",
      "type": "function",
      "constant": true
    },
    {
      "inputs": [],
      "name": "getName",
      "outputs": [
        {
          "internalType": "string",
          "name": "_name",
          "type": "string"
        }
      ],
      "stateMutability": "view",
      "type": "function",
      "constant": true
    },
    {
      "inputs": [],
      "name": "getMobile",
      "outputs": [
        {
          "internalType": "string",
          "name": "_mobile",
          "type": "string"
        }
      ],
      "stateMutability": "view",
      "type": "function",
      "constant": true
    },
    {
      "inputs": [],
      "name": "getUserAddr",
      "outputs": [
        {
          "internalType": "string",
          "name": "_user_addr",
          "type": "string"
        }
      ],
      "stateMutability": "view",
      "type": "function",
      "constant": true
    }
  ],
  "bytecode": "0x608060405234801561001057600080fd5b5033600460006101000a81548173ffffffffffffffffffffffffffffffffffffffff021916908373ffffffffffffffffffffffffffffffffffffffff160217905550611049806100616000396000f3fe608060405234801561001057600080fd5b50600436106100935760003560e01c8063c47f002711610066578063c47f00271461010c578063cd0ebd9514610128578063d99edca314610144578063da8bfc5614610160578063edd80e421461017e57610093565b806317d7de7c1461009857806385f3e6ca146100b65780639294aebe146100d25780639e0bc62f146100ee575b600080fd5b6100a061019c565b6040516100ad9190610a14565b60405180910390f35b6100d060048036038101906100cb9190610b7f565b6102be565b005b6100ec60048036038101906100e79190610c26565b610361565b005b6100f6610435565b6040516101039190610a14565b60405180910390f35b61012660048036038101906101219190610b7f565b610557565b005b610142600480360381019061013d9190610b7f565b6105fa565b005b61015e60048036038101906101599190610b7f565b61069d565b005b610168610740565b6040516101759190610a14565b60405180910390f35b610186610862565b6040516101939190610a14565b60405180910390f35b6060600560009054906101000a900473ffffffffffffffffffffffffffffffffffffffff1673ffffffffffffffffffffffffffffffffffffffff163373ffffffffffffffffffffffffffffffffffffffff161461022e576040517f08c379a000000000000000000000000000000000000000000000000000000000815260040161022590610c9f565b60405180910390fd5b6001805461023b90610cee565b80601f016020809104026020016040519081016040528092919081815260200182805461026790610cee565b80156102b45780601f10610289576101008083540402835291602001916102b4565b820191906000526020600020905b81548152906001019060200180831161029757829003601f168201915b5050505050905090565b600460009054906101000a900473ffffffffffffffffffffffffffffffffffffffff1673ffffffffffffffffffffffffffffffffffffffff163373ffffffffffffffffffffffffffffffffffffffff161461034e576040517f08c379a000000000000000000000000000000000000000000000000000000000815260040161034590610d6b565b60405180910390fd5b806003908161035d9190610f41565b5050565b600460009054906101000a900473ffffffffffffffffffffffffffffffffffffffff1673ffffffffffffffffffffffffffffffffffffffff163373ffffffffffffffffffffffffffffffffffffffff16146103f1576040517f08c379a00000000000000000000000000000000000000000000000000000000081526004016103e890610d6b565b60405180910390fd5b80600560006101000a81548173ffffffffffffffffffffffffffffffffffffffff021916908373ffffffffffffffffffffffffffffffffffffffff16021790555050565b6060600560009054906101000a900473ffffffffffffffffffffffffffffffffffffffff1673ffffffffffffffffffffffffffffffffffffffff163373ffffffffffffffffffffffffffffffffffffffff16146104c7576040517f08c379a00000000000000000000000000000000000000000000000000000000081526004016104be90610c9f565b60405180910390fd5b600280546104d490610cee565b80601f016020809104026020016040519081016040528092919081815260200182805461050090610cee565b801561054d5780601f106105225761010080835404028352916020019161054d565b820191906000526020600020905b81548152906001019060200180831161053057829003601f168201915b5050505050905090565b600460009054906101000a900473ffffffffffffffffffffffffffffffffffffffff1673ffffffffffffffffffffffffffffffffffffffff163373ffffffffffffffffffffffffffffffffffffffff16146105e7576040517f08c379a00000000000000000000000000000000000000000000000000000000081526004016105de90610d6b565b60405180910390fd5b80600190816105f69190610f41565b5050565b600460009054906101000a900473ffffffffffffffffffffffffffffffffffffffff1673ffffffffffffffffffffffffffffffffffffffff163373ffffffffffffffffffffffffffffffffffffffff161461068a576040517f08c379a000000000000000000000000000000000000000000000000000000000815260040161068190610d6b565b60405180910390fd5b80600090816106999190610f41565b5050565b600460009054906101000a900473ffffffffffffffffffffffffffffffffffffffff1673ffffffffffffffffffffffffffffffffffffffff163373ffffffffffffffffffffffffffffffffffffffff161461072d576040517f08c379a000000000000000000000000000000000000000000000000000000000815260040161072490610d6b565b60405180910390fd5b806002908161073c9190610f41565b5050565b6060600560009054906101000a900473ffffffffffffffffffffffffffffffffffffffff1673ffffffffffffffffffffffffffffffffffffffff163373ffffffffffffffffffffffffffffffffffffffff16146107d2576040517f08c379a00000000000000000000000000000000000000000000000000000000081526004016107c990610c9f565b60405180910390fd5b600380546107df90610cee565b80601f016020809104026020016040519081016040528092919081815260200182805461080b90610cee565b80156108585780601f1061082d57610100808354040283529160200191610858565b820191906000526020600020905b81548152906001019060200180831161083b57829003601f168201915b5050505050905090565b6060600560009054906101000a900473ffffffffffffffffffffffffffffffffffffffff1673ffffffffffffffffffffffffffffffffffffffff163373ffffffffffffffffffffffffffffffffffffffff16146108f4576040517f08c379a00000000000000000000000000000000000000000000000000000000081526004016108eb90610c9f565b60405180910390fd5b6000805461090190610cee565b80601f016020809104026020016040519081016040528092919081815260200182805461092d90610cee565b801561097a5780601f1061094f5761010080835404028352916020019161097a565b820191906000526020600020905b81548152906001019060200180831161095d57829003601f168201915b5050505050905090565b600081519050919050565b600082825260208201905092915050565b60005b838110156109be5780820151818401526020810190506109a3565b60008484015250505050565b6000601f19601f8301169050919050565b60006109e682610984565b6109f0818561098f565b9350610a008185602086016109a0565b610a09816109ca565b840191505092915050565b60006020820190508181036000830152610a2e81846109db565b905092915050565b6000604051905090565b600080fd5b600080fd5b600080fd5b600080fd5b7f4e487b7100000000000000000000000000000000000000000000000000000000600052604160045260246000fd5b610a8c826109ca565b810181811067ffffffffffffffff82111715610aab57610aaa610a54565b5b80604052505050565b6000610abe610a36565b9050610aca8282610a83565b919050565b600067ffffffffffffffff821115610aea57610ae9610a54565b5b610af3826109ca565b9050602081019050919050565b82818337600083830152505050565b6000610b22610b1d84610acf565b610ab4565b905082815260208101848484011115610b3e57610b3d610a4f565b5b610b49848285610b00565b509392505050565b600082601f830112610b6657610b65610a4a565b5b8135610b76848260208601610b0f565b91505092915050565b600060208284031215610b9557610b94610a40565b5b600082013567ffffffffffffffff811115610bb357610bb2610a45565b5b610bbf84828501610b51565b91505092915050565b600073ffffffffffffffffffffffffffffffffffffffff82169050919050565b6000610bf382610bc8565b9050919050565b610c0381610be8565b8114610c0e57600080fd5b50565b600081359050610c2081610bfa565b92915050565b600060208284031215610c3c57610c3b610a40565b5b6000610c4a84828501610c11565b91505092915050565b7f43616c6c6572206973206e6f7420746865207665726966696572000000000000600082015250565b6000610c89601a8361098f565b9150610c9482610c53565b602082019050919050565b60006020820190508181036000830152610cb881610c7c565b9050919050565b7f4e487b7100000000000000000000000000000000000000000000000000000000600052602260045260246000fd5b60006002820490506001821680610d0657607f821691505b602082108103610d1957610d18610cbf565b5b50919050565b7f43616c6c6572206973206e6f74206f776e657200000000000000000000000000600082015250565b6000610d5560138361098f565b9150610d6082610d1f565b602082019050919050565b60006020820190508181036000830152610d8481610d48565b9050919050565b60008190508160005260206000209050919050565b60006020601f8301049050919050565b600082821b905092915050565b600060088302610ded7fffffffffffffffffffffffffffffffffffffffffffffffffffffffffffffffff82610db0565b610df78683610db0565b95508019841693508086168417925050509392505050565b6000819050919050565b6000819050919050565b6000610e3e610e39610e3484610e0f565b610e19565b610e0f565b9050919050565b6000819050919050565b610e5883610e23565b610e6c610e6482610e45565b848454610dbd565b825550505050565b600090565b610e81610e74565b610e8c818484610e4f565b505050565b5b81811015610eb057610ea5600082610e79565b600181019050610e92565b5050565b601f821115610ef557610ec681610d8b565b610ecf84610da0565b81016020851015610ede578190505b610ef2610eea85610da0565b830182610e91565b50505b505050565b600082821c905092915050565b6000610f1860001984600802610efa565b1980831691505092915050565b6000610f318383610f07565b9150826002028217905092915050565b610f4a82610984565b67ffffffffffffffff811115610f6357610f62610a54565b5b610f6d8254610cee565b610f78828285610eb4565b600060209050601f831160018114610fab5760008415610f99578287015190505b610fa38582610f25565b86555061100b565b601f198416610fb986610d8b565b60005b82811015610fe157848901518255600182019150602085019450602081019050610fbc565b86831015610ffe5784890151610ffa601f891682610f07565b8355505b6001600288020188555050505b50505050505056fea26469706673582212201ff7aa2da3180350d428f769b4965288b263f20f46f3e70e7a7937e86c88acf164736f6c63430008110033",
  "immutableReferences": {},
  "source": "// SPDX-License-Identifier: GPL-3.0\n\npragma solidity >=0.7.0 <0.9.0;\n\ncontract User{\n    // personal details to be shared when verifying the person\n    string nic;\n    string name;\n    string mobile;\n    string user_address;\n\n    // user wallet address - to restrict the updates of personal details\n    address private owner;\n\n    // wallet address of last verifier \n        // - we give permission for this address to retrieve our personal data\n    address lastVerifier;\n\n    constructor() {\n        owner = msg.sender;\n    }\n\n    // modifier to restrict the change of personal data only for the owner\n    modifier isOwner() {\n       require(msg.sender == owner, \"Caller is not owner\");\n        _;\n    }\n\n    // modifier for giving permission to retreive our personal details only to the verifier\n    modifier isVerified() {\n       require(msg.sender == lastVerifier, \"Caller is not the verifier\");\n        _;\n    }\n\n    // setters for personal details - restricted only to the owner\n    function setNIC(string memory _nic) public isOwner{\n        nic= _nic;\n    }\n    function setName(string memory _name) public isOwner{\n        name = _name;\n    }\n    function setMobile(string memory _mobile) public isOwner{\n        mobile = _mobile;\n    }\n    function setUserAddr(string memory _user_addr) public isOwner{\n        user_address = _user_addr;\n    }\n    function setLastVerifier(address verifier) public isOwner{\n        lastVerifier = verifier;\n    }\n\n    // getters for personal detials - restricted only for last verifier\n    function getNIC() public view isVerified returns (string memory _nic){\n        return nic;\n    }\n    function getName() public view isVerified returns (string memory _name){\n        return name;\n    }\n    function getMobile() public view isVerified returns (string memory _mobile){\n        return mobile;\n    }\n    function getUserAddr() public view isVerified returns (string memory _user_addr){\n        return user_address;\n    }\n}",
  "sourcePath": "/home/akilag/Documents/Sem-5/CS3202 - Software Engineering Project - 2/Code/Contracts/contracts/user_contract.sol",
  "compiler": {
    "name": "solc",
    "version": "0.8.17+commit.8df45f5f.Emscripten.clang"
  },
  "schemaVersion": "3.4.10",
  "updatedAt": "2022-10-31T13:56:51.444Z",
  "networkType": "ethereum",
  "devdoc": {
    "kind": "dev",
    "methods": {},
    "version": 1
  },
  "userdoc": {
    "kind": "user",
    "methods": {},
    "version": 1
  }
}