{
  "contractName": "Verifier",
  "abi": [
    {
      "inputs": [],
      "stateMutability": "nonpayable",
      "type": "constructor"
    },
    {
      "inputs": [
        {
          "internalType": "string",
          "name": "token",
          "type": "string"
        },
        {
          "internalType": "address",
          "name": "user",
          "type": "address"
        }
      ],
      "name": "verifyToken",
      "outputs": [],
      "stateMutability": "nonpayable",
      "type": "function"
    },
    {
      "inputs": [
        {
          "internalType": "string",
          "name": "token",
          "type": "string"
        }
      ],
      "name": "getVerifiedUserAddress",
      "outputs": [
        {
          "internalType": "address",
          "name": "user",
          "type": "address"
        }
      ],
      "stateMutability": "view",
      "type": "function",
      "constant": true
    }
  ],
  "bytecode": "0x608060405234801561001057600080fd5b50336000806101000a81548173ffffffffffffffffffffffffffffffffffffffff021916908373ffffffffffffffffffffffffffffffffffffffff160217905550610581806100606000396000f3fe608060405234801561001057600080fd5b50600436106100365760003560e01c8063dca34dfc1461003b578063f202db3914610057575b600080fd5b61005560048036038101906100509190610377565b610087565b005b610071600480360381019061006c91906103d3565b6100e8565b60405161007e919061042b565b60405180910390f35b8060018360405161009891906104b7565b908152602001604051809103902060006101000a81548173ffffffffffffffffffffffffffffffffffffffff021916908373ffffffffffffffffffffffffffffffffffffffff1602179055505050565b60008060009054906101000a900473ffffffffffffffffffffffffffffffffffffffff1673ffffffffffffffffffffffffffffffffffffffff163373ffffffffffffffffffffffffffffffffffffffff1614610179576040517f08c379a00000000000000000000000000000000000000000000000000000000081526004016101709061052b565b60405180910390fd5b60018260405161018991906104b7565b908152602001604051809103902060009054906101000a900473ffffffffffffffffffffffffffffffffffffffff169050919050565b6000604051905090565b600080fd5b600080fd5b600080fd5b600080fd5b6000601f19601f8301169050919050565b7f4e487b7100000000000000000000000000000000000000000000000000000000600052604160045260246000fd5b610226826101dd565b810181811067ffffffffffffffff82111715610245576102446101ee565b5b80604052505050565b60006102586101bf565b9050610264828261021d565b919050565b600067ffffffffffffffff821115610284576102836101ee565b5b61028d826101dd565b9050602081019050919050565b82818337600083830152505050565b60006102bc6102b784610269565b61024e565b9050828152602081018484840111156102d8576102d76101d8565b5b6102e384828561029a565b509392505050565b600082601f830112610300576102ff6101d3565b5b81356103108482602086016102a9565b91505092915050565b600073ffffffffffffffffffffffffffffffffffffffff82169050919050565b600061034482610319565b9050919050565b61035481610339565b811461035f57600080fd5b50565b6000813590506103718161034b565b92915050565b6000806040838503121561038e5761038d6101c9565b5b600083013567ffffffffffffffff8111156103ac576103ab6101ce565b5b6103b8858286016102eb565b92505060206103c985828601610362565b9150509250929050565b6000602082840312156103e9576103e86101c9565b5b600082013567ffffffffffffffff811115610407576104066101ce565b5b610413848285016102eb565b91505092915050565b61042581610339565b82525050565b6000602082019050610440600083018461041c565b92915050565b600081519050919050565b600081905092915050565b60005b8381101561047a57808201518184015260208101905061045f565b60008484015250505050565b600061049182610446565b61049b8185610451565b93506104ab81856020860161045c565b80840191505092915050565b60006104c38284610486565b915081905092915050565b600082825260208201905092915050565b7f43616c6c6572206973206e6f74206f776e657200000000000000000000000000600082015250565b60006105156013836104ce565b9150610520826104df565b602082019050919050565b6000602082019050818103600083015261054481610508565b905091905056fea2646970667358221220f039591cf56e024933271d857164d4413c8544c6f7780c79236f1d880979e54964736f6c63430008110033",
  "immutableReferences": {},
  "source": "// SPDX-License-Identifier: GPL-3.0\n\npragma solidity >=0.7.0 <0.9.0;\n\n\ncontract Verifier{\n\n    // verifier wallet address - to restrict the access of verified personal details only to the verifier\n    address private owner;\n\n    constructor() {\n        owner = msg.sender;\n    }\n\n    // store the verified tokens and addresses of the users with that token \n    mapping(string=>address) verified_tokens;\n\n    // modifier to restrict the access of verified personal details only to the verifier\n    modifier isOwner() {\n       require(msg.sender == owner, \"Caller is not owner\");\n        _;\n    }\n\n    // public function called by any user who scans the QR code\n    // adds token and wallet address of the user\n    function verifyToken(string memory token, address user) public{\n        verified_tokens[token] = user;\n    }\n\n    // get the wallet address of verified user by the token\n    function getVerifiedUserAddress(string memory token) public view isOwner returns (address user){\n        return verified_tokens[token];\n    }\n}",
  "sourcePath": "/home/akilag/Documents/Sem-5/CS3202 - Software Engineering Project - 2/Code/Contracts/contracts/verifier_contract.sol",
  "compiler": {
    "name": "solc",
    "version": "0.8.17+commit.8df45f5f.Emscripten.clang"
  },
  "schemaVersion": "3.4.10",
  "updatedAt": "2022-10-31T13:56:51.645Z",
  "networkType": "ethereum",
  "devdoc": {
    "kind": "dev",
    "methods": {},
    "version": 1
  },
  "userdoc": {
    "kind": "user",
    "methods": {},
    "version": 1
  }
}